:1000000033C000004CC000004AC0000048C00000DF
:1000100082C0000045C0000042C0000040C0000097
:100020003EC0000028C400003AC0000038C00000F4
:1000300036C0000034C0000032C0000030C00000F4
:100040002EC000002CC000002AC0000028C0000004
:1000500026C0000024C0000022C0000020C0000014
:100060001EC000001CC0000011241FBECFEFD4E052
:10007000DEBFCDBF11E0A0E0B1E0E6EEFAE002C0E5
:1000800005900D92A831B107D9F711E0A8E1B1E0D0
:1000900001C01D92A534B107E1F7F0D022C5B0CF61
:1000A0001F920F920FB60F9211242F933F934F93ED
:1000B0005F938F939F9389B1209184003091850045
:1000C00080FF0CC08091310190913201A901481B41
:1000D000590B50933401409333010EC0809131018C
:1000E00090913201A901481B590B5093360140935E
:1000F000350181E080933701309332012093310143
:100100009F918F915F914F913F912F910F900FBED3
:100110000F901F9018951F920F920FB60F921124F7
:100120002F933F934F935F938F939F9386B120912B
:1001300084003091850085FF0CC080913B01909137
:100140003C01A901481B590B50933E0140933D01CE
:100150000EC080913B0190913C01A901481B590BB5
:100160005093400140933F0181E0809341013093DF
:100170003C0120933B019F918F915F914F913F9163
:100180002F910F900FBE0F901F901895A8E3B1E02C
:1001900040E050E065E0F8942091840030918500C3
:1001A000FA01EE0FFF1FCA0173E0880F991F7A95BD
:1001B000E1F7E80FF91FEF5CFE4F80819181281B6A
:1001C000390B295B384818F012966C931297789483
:1001D000FA01EE0FFF1FCA0173E0880F991F7A958D
:1001E000E1F7E80FF91FEF5CFE4F8681882309F4E1
:1001F0003DC0F894FA01EE0FFF1FCA0123E0880FFB
:10020000991F2A95E1F7E80FF91FEF5CFE4F168260
:1002100024813581FA01EE0FFF1FEE0FFF1FE40F5F
:10022000F51FEE0FFF1FED5CFE4F808191817894EA
:1002300011961C921E92885B9B4038F02C39310538
:1002400020F083E02F30380720F012966C9312973D
:100250000DC012968C911297882329F08150129626
:100260008C93129703C011963C932E934F5F5F4F70
:100270001A964230510509F08ECF0895A0E0B0E003
:10028000E3E4F1E0FDC385E080933A01809344010B
:100290005098589A3D98459A81E090E026D380E2A4
:1002A00080936C0081E080936D008FEF8BBB86E0C4
:1002B00080936800789483E080938100C5EDD1E05D
:1002C00065DF66D324E630E040E050E096D3611568
:1002D00071058105910569F180E060E092D180E0CF
:1002E00091E0FFD1809138019091390135E0880F7C
:1002F000991F3A95E1F76AE070E06BD380E090E0F7
:10030000E2D185E091E0EDD180E061E07AD18AE050
:1003100091E0E7D1809142019091430125E0880F5F
:10032000991F2A95E1F76AE070E053D380E090E0EE
:10033000CAD180913A01882321F480914401882315
:1003400031F080E090E060E070E093D2B9CF80912E
:100350003801909139017E01E81AF90AC0904201F2
:10036000D0904301B601655D71406E0D7F1D8827F9
:1003700077FD8095982F2FEF30E040E050E00AD3D2
:100380002CE930E040E050E05AD349015A01309363
:10039000190120931801EC18FD0885ED91E0E80E95
:1003A000F91E0027F7FC0095102FC801B7012FEFA9
:1003B00030E040E050E0EED22CE930E040E050E0A8
:1003C0003ED330931B0120931A01C40186509F4FE6
:1003D000855F914010F4C4011ED220911A01309122
:1003E0001B01C90186509F4F855F914008F068CF7F
:1003F000C90134D265CFEF92FF920F931F936AB178
:1004000057985A98289AE0902001F0902101009185
:1004100022011091230120E030E041E050E0CA01C8
:100420006F9364E06A95F1F76F910197C9F75C9A51
:10043000CA016F9364E06A95F1F76F910197C9F76C
:1004400089B15C98FA016F9364E06A95F1F76F9156
:100450003197C9F75C9AFA016F9364E06A95F1F7F6
:100460006F913197C9F75C9887FF0BC02C5F3F4FA6
:10047000C901A0E0B0E08E159F05A007B10708F400
:10048000CECF6AB91F910F91FF90EF90089565B19B
:1004900090E0AC0141705070440F551F9C012670D4
:1004A000307053E0220F331F5A95E1F7422B6D7CD9
:1004B000462B45B92BB18870907034E0880F991F96
:1004C0003A95E1F72F77282B2BB95C9A81E090E0E1
:1004D000FC016F9364E06A95F1F76F913197C9F76A
:1004E0005C986F9364E06A95F1F76F910197C9F793
:1004F000089580E197E2A0E0B0E08093200190931E
:100500002101A0932201B0932301529A209A549A78
:100510008EE190E0F9D183E0E6D086E090E0F4D17E
:1005200083E0E1D082E090E0EFD183E0DCD082E0B4
:1005300090E0EAD182E0D7D082E090E0E5D188E295
:1005400041D088E03FD081E03DD086E03BD08CE0D8
:1005500039C080912401882321F481E08093240113
:10056000C8CF0895BF92CF92DF92EF92FF920F9380
:100570001F93082F162FF42EECDF3DDFB4B0C5B06B
:10058000DAB0EBB02898112311F05A9A01C05A98AA
:1005900084B1826384B9579A81E0F81621F0802FE4
:1005A00082958F7074DF802F8F7071DFDAB8EBB8AF
:1005B000B4B8C5B81F910F91FF90EF90DF90CF9026
:1005C000BF90089560E042E0CDCFA4E0B0E0EAEE55
:1005D000F2E05EC2182F062F80E8898380EC8A83C0
:1005E00084E98B8384ED8C83FE01E60FF11D81810C
:1005F000810FE8DF10931F0100931E012496E4E0B1
:1006000063C2E3CF089561E042E0ACCF6F927F9286
:100610008F929F92AF92BF92CF92DF92FF920F93F1
:10062000DF93CF93CDB7DEB72A970FB6F894DEBF2E
:100630000FBECDBF5B016C010AE03E010894611C56
:10064000711CFA2CC601B5012AE030E040E050E010
:10065000D4D1C901DA015C016D0101504301800E62
:10066000911C80E3F80EC601B5012AE030E040E0BD
:1006700050E090D1F61AF401F082A114B104C10443
:10068000D104F9F607C0F601E00FF11D8081BBDF50
:100690000F5F04C06E010894C11CD11C0A3098F38E
:1006A0002A960FB6F894DEBF0FBECDBFCF91DF9173
:1006B0000F91FF90DF90CF90BF90AF909F908F9061
:1006C0007F906F900895A2CF0895CF93DF93EC01B0
:1006D00002C0219698DF88818823D9F7DF91CF91D6
:1006E0000895F3CF089560E041E03CCF282F883093
:1006F00068F481E090E002C0880F991F2A95E2F724
:10070000282FAAE2B0E0EBE2F0E029C08E3080F4BE
:1007100030E02850304081E090E002C0880F991FFF
:100720002A95E2F7282FA4E2B0E0E5E2F0E017C056
:10073000853130F020E0A0E0B0E0E0E0F0E00FC074
:1007400030E02E50304081E090E002C0880F991FC9
:100750002A95E2F7282FA7E2B0E0E8E2F0E06F3F49
:1007600019F48081822709C0662319F08081822BC9
:1007700004C09081822F8095892380838C91822B65
:100780008C930895E0EBF0E083EF8083808184BD5B
:10079000E1EBF0E082E08083808185BDE4EBF0E076
:1007A00010828081E3EBF0E08083808188BD88B592
:1007B00087BD86E060E09ADF85E060E097DF8BE050
:1007C00060E094DF83E060E091CF80912501882391
:1007D00021F481E080932501D5CF0895CF93DF9355
:1007E000EC01F3DFD7FD02C020E004C0D095C19535
:1007F000DF4F21E0CE01CF3FD10519F014F08FEF8C
:1008000090E0222319F018BC87BD02C088BD17BC38
:10081000DF91CF910895E2CF0895CF93DF93EC015C
:10082000D4DFD7FD02C020E004C0D095C195DF4FD2
:1008300021E0CE01CF3FD10519F014F08FEF90E009
:10084000222329F01092B4008093B30004C0809357
:10085000B4001092B300DF91CF910895DECF0895D8
:100860000F931F938B01BADFC801D7DF1F910F9140
:100870000895F6CF08952F928F939F932FB680916E
:1008800027019091280101968093270190932801D8
:1008900090E080912901891F8093290190912F0177
:1008A0009C5F90932F0180912E0180519742C0F060
:1008B00090932F0180932E0180912A0190912B011A
:1008C000019680932A0190932B0190E080912C0156
:1008D000891F80932C0180912D01891F80932D0108
:1008E0002FBE9F918F912F90189528EE33E009C06D
:1008F000F9016F9364E06A95F1F76F913197C9F749
:1009000001970097A9F7089528EE33E009C0F9018F
:100910006F9364E06A95F1F76F913197C9F701978A
:100920000097A9F70895A0E7B0E08C918E7F8C9393
:10093000E0EBF0E0808183608083E1EBF0E0808198
:10094000807F8083808182608083B89A8C9181606F
:100950008C937894089580913001882321F481E06C
:1009600080933001E0CF0895F6DFE0E7F0E080818A
:100970008E7F808320912A0130912B0140912C01A0
:1009800050912D01808181608083B901CA01089551
:10099000EBCF0895629FD001739FF001829FE00D1D
:1009A000F11D649FE00DF11D929FF00D839FF00DEE
:1009B000749FF00D659FF00D9927729FB00DE11D9A
:1009C000F91F639FB00DE11DF91FBD01CF01112477
:1009D0000895AA1BBB1B51E107C0AA1FBB1FA61786
:1009E000B70710F0A61BB70B881F991F5A95A9F7D8
:1009F00080959095BC01CD010895A1E21A2EAA1B05
:100A0000BB1BFD010DC0AA1FBB1FEE1FFF1FA217BE
:100A1000B307E407F50720F0A21BB30BE40BF50BBB
:100A2000661F771F881F991F1A9469F76095709544
:100A3000809590959B01AC01BD01CF01089597FB76
:100A4000092E05260ED057FD04D0D7DF0AD0001C92
:100A500038F450954095309521953F4F4F4F5F4F5B
:100A60000895F6F790958095709561957F4F8F4F1B
:100A70009F4F08952F923F924F925F926F927F9275
:100A80008F929F92AF92BF92CF92DF92EF92FF929E
:100A90000F931F93CF93DF93CDB7DEB7CA1BDB0B4A
:100AA0000FB6F894DEBF0FBECDBF09942A883988EF
:100AB00048885F846E847D848C849B84AA84B984F6
:100AC000C884DF80EE80FD800C811B81AA81B98102
:100AD000CE0FD11D0FB6F894DEBF0FBECDBFED0116
:060AE0000895F894FFCF19
:100AE6006368312000202020200063683220009CAB
:080AF60000D5010E03B80B004E
:00000001FF
